S00B00004144432E7372656351
S11300000C942A000C9434000C9434000C943400A6
S11300100C9434000C9434000C9434000C9434008C
S11300200C9434000C9434000C9434000C9434007C
S11300300C9434000C9434000C9434000C9434006C
S11300400C9434000C9434000C9434000C9434005C
S11300500C94340011241FBECFE5D8E0DEBFCDBF21
S11300600E9447000C9487010C9400003E9A87E894
S113007086B9089597B1987F8770892B87B9369A86
S11300803699FECF84B125B190E0922B0895CF9399
S1130090DF93CDB7DEB760970FB6F894DEBF0FBE1F
S11300A0CDBF84B3836F84BB2FEF39EF80E0215041
S11300B030408040E1F700C0000085B38F7085BBFD
S11300C0A898A99A95E39A95F1F70000A998AFE149
S11300D0B3E01197F1F700C0000085B38F70806220
S11300E085BBA898A99AB5E3BA95F1F70000A99839
S11300F08FE19EE40197F1F700C0000085B38F7093
S1130100806285BBA898A99A95E39A95F1F70000B7
S1130110A998AFE1B3E01197F1F700C0000085B3EF
S11301208F70806885BBA898A99AB5E3BA95F1F752
S11301300000A9988FE19EE40197F1F700C0000048
S113014085B38F7085BBA898A99A95E39A95F1F722
S11301500000A998AFE1B3E01197F1F700C00000E7
S113016085B38F70806C85BBA898A99AB5E3BA95BE
S1130170F1F70000A9988FE19EE40197F1F700C020
S1130180000085B38F7085BBA898A99A95E39A95CA
S1130190F1F70000A998AFE1B3E01197F1F700C0BF
S11301A0000085B38F70806185BBA898A99AB5E3D8
S11301B0BA95F1F70000A9988FE19EE40197F1F751
S11301C000C000000E9436009FEFA0E7B2E091500B
S11301D0A040B040E1F700C0000080E00E943A0077
S11301E04AE0BE016F5F7F4F0E94520199819923BB
S11301F071F1FE01329685B38F70292F207F822BF7
S113020085BBA89AA99A25E02A95F1F70000A99838
S1130210AFE1B3E01197F1F700C0000085B3282FD8
S11302202F70B0E19B9FC0011124822B85BBA89A3B
S1130230A99A25E02A95F1F70000A9988FE19EE498
S11302400197F1F700C0000091919111D4CF9FEF75
S1130250A7EAB1E69150A040B040E1F700C0000029
S113026085B38F7085BBA898A99A25E32A95F1F7E1
S11302700000A9988FE193E00197F1F700C0000016
S113028085B38F70806185BBA898A99A95E39A95E8
S1130290F1F70000A998AFE1BEE41197F1F700C0AF
S11302A000009BCFBB274A3031F4992322F4BDE2EE
S11302B0909581959F4F0C945E01BB27FB015527B8
S11302C0AA27880F991FAA1FA41710F0A41B8395AF
S11302D05051B9F7A05DAA3308F0A95DA193009726
S11302E079F7B111B1931192CB010C947701DC0130
S11302F0FC01672F71917723E1F7329704C07C9159
S11303006D9370836291AE17BF07C8F30895F89494
S1050310FFCF19
S9030000FC
