S01100006469676974616C494F2E737265639D
S11300000C942A000C9434000C9434000C943400A6
S11300100C9434000C9434000C9434000C9434008C
S11300200C9434000C9434000C9434000C9434007C
S11300300C9434000C9434000C9434000C9434006C
S11300400C9434000C9434000C9434000C9434005C
S11300500C94340011241FBECFE5D8E0DEBFCDBF21
S11300600E9436000C9465000C940000D09AA0986D
S11300708BB381708BBB2FEF31EE44E021503040C5
S11300804040E1F700C0000086E090E031E02BB38F
S113009023272BBB5FEF21EE44E05150204040402A
S11300A0E1F700C00000019791F791E0989BFECF23
S11300B08BB389278BBB5FEF81EE24E051508040E6
S11100C02040E1F700C00000F1CFF894FFCF1C
S9030000FC
